{
  "_format": "hh-sol-artifact-1",
  "contractName": "LenomyNFTCourseFactory",
  "sourceName": "contracts/LenomyNFTCourseFactory.sol",
  "abi": [
    {
      "anonymous": false,
      "inputs": [
        {
          "indexed": true,
          "internalType": "address",
          "name": "courseAddress",
          "type": "address"
        },
        {
          "indexed": true,
          "internalType": "address",
          "name": "creator",
          "type": "address"
        }
      ],
      "name": "NFTCourseCreated",
      "type": "event"
    },
    {
      "anonymous": false,
      "inputs": [
        {
          "indexed": true,
          "internalType": "address",
          "name": "courseAddress",
          "type": "address"
        },
        {
          "indexed": true,
          "internalType": "address",
          "name": "remover",
          "type": "address"
        }
      ],
      "name": "NFTCourseRemoved",
      "type": "event"
    },
    {
      "anonymous": false,
      "inputs": [
        {
          "indexed": true,
          "internalType": "address",
          "name": "courseAddress",
          "type": "address"
        },
        {
          "indexed": true,
          "internalType": "address",
          "name": "updater",
          "type": "address"
        }
      ],
      "name": "NFTCourseUpdated",
      "type": "event"
    },
    {
      "inputs": [
        {
          "internalType": "address",
          "name": "",
          "type": "address"
        }
      ],
      "name": "courses",
      "outputs": [
        {
          "internalType": "string",
          "name": "name",
          "type": "string"
        },
        {
          "internalType": "string",
          "name": "symbol",
          "type": "string"
        },
        {
          "internalType": "address",
          "name": "creator",
          "type": "address"
        },
        {
          "internalType": "string",
          "name": "description",
          "type": "string"
        },
        {
          "internalType": "uint256",
          "name": "price",
          "type": "uint256"
        },
        {
          "internalType": "string",
          "name": "encryptedCID",
          "type": "string"
        },
        {
          "internalType": "uint256",
          "name": "rentalUnitPrice",
          "type": "uint256"
        },
        {
          "internalType": "uint256",
          "name": "rentalUnitTimestamp",
          "type": "uint256"
        }
      ],
      "stateMutability": "view",
      "type": "function"
    },
    {
      "inputs": [
        {
          "components": [
            {
              "internalType": "string",
              "name": "name",
              "type": "string"
            },
            {
              "internalType": "string",
              "name": "symbol",
              "type": "string"
            },
            {
              "internalType": "address",
              "name": "creator",
              "type": "address"
            },
            {
              "internalType": "string",
              "name": "description",
              "type": "string"
            },
            {
              "internalType": "uint256",
              "name": "price",
              "type": "uint256"
            },
            {
              "internalType": "string",
              "name": "encryptedCID",
              "type": "string"
            },
            {
              "internalType": "uint256",
              "name": "rentalUnitPrice",
              "type": "uint256"
            },
            {
              "internalType": "uint256",
              "name": "rentalUnitTimestamp",
              "type": "uint256"
            }
          ],
          "internalType": "struct LenomyNFTCourse.CourseData",
          "name": "_courseData",
          "type": "tuple"
        }
      ],
      "name": "createCourse",
      "outputs": [
        {
          "internalType": "address",
          "name": "",
          "type": "address"
        }
      ],
      "stateMutability": "nonpayable",
      "type": "function"
    },
    {
      "inputs": [
        {
          "internalType": "address",
          "name": "_courseAddress",
          "type": "address"
        }
      ],
      "name": "getCourse",
      "outputs": [
        {
          "components": [
            {
              "internalType": "string",
              "name": "name",
              "type": "string"
            },
            {
              "internalType": "string",
              "name": "symbol",
              "type": "string"
            },
            {
              "internalType": "address",
              "name": "creator",
              "type": "address"
            },
            {
              "internalType": "string",
              "name": "description",
              "type": "string"
            },
            {
              "internalType": "uint256",
              "name": "price",
              "type": "uint256"
            },
            {
              "internalType": "string",
              "name": "encryptedCID",
              "type": "string"
            },
            {
              "internalType": "uint256",
              "name": "rentalUnitPrice",
              "type": "uint256"
            },
            {
              "internalType": "uint256",
              "name": "rentalUnitTimestamp",
              "type": "uint256"
            }
          ],
          "internalType": "struct LenomyNFTCourse.CourseData",
          "name": "",
          "type": "tuple"
        }
      ],
      "stateMutability": "view",
      "type": "function"
    },
    {
      "inputs": [
        {
          "internalType": "address",
          "name": "_courseAddress",
          "type": "address"
        }
      ],
      "name": "removeCourse",
      "outputs": [],
      "stateMutability": "nonpayable",
      "type": "function"
    },
    {
      "inputs": [
        {
          "internalType": "address",
          "name": "_courseAddress",
          "type": "address"
        },
        {
          "components": [
            {
              "internalType": "string",
              "name": "name",
              "type": "string"
            },
            {
              "internalType": "string",
              "name": "symbol",
              "type": "string"
            },
            {
              "internalType": "address",
              "name": "creator",
              "type": "address"
            },
            {
              "internalType": "string",
              "name": "description",
              "type": "string"
            },
            {
              "internalType": "uint256",
              "name": "price",
              "type": "uint256"
            },
            {
              "internalType": "string",
              "name": "encryptedCID",
              "type": "string"
            },
            {
              "internalType": "uint256",
              "name": "rentalUnitPrice",
              "type": "uint256"
            },
            {
              "internalType": "uint256",
              "name": "rentalUnitTimestamp",
              "type": "uint256"
            }
          ],
          "internalType": "struct LenomyNFTCourse.CourseData",
          "name": "_courseData",
          "type": "tuple"
        }
      ],
      "name": "updateCourse",
      "outputs": [],
      "stateMutability": "nonpayable",
      "type": "function"
    }
  ],
  "bytecode": "0x6080604052348015600f57600080fd5b506149a98061001f6000396000f3fe608060405234801561001057600080fd5b50600436106100575760003560e01c80632ef368a91461005c578063391bf7a71461008c5780635ab6c14d146100c3578063cc2c19a2146100df578063d32a5e4f1461010f575b600080fd5b61007660048036038101906100719190610dec565b61012b565b6040516100839190610f96565b60405180910390f35b6100a660048036038101906100a19190610dec565b610440565b6040516100ba989796959493929190611020565b60405180910390f35b6100dd60048036038101906100d8919061135f565b6106c8565b005b6100f960048036038101906100f491906113bb565b6108fa565b6040516101069190611404565b60405180910390f35b61012960048036038101906101249190610dec565b610ac7565b005b610133610cb5565b6000808373ffffffffffffffffffffffffffffffffffffffff1673ffffffffffffffffffffffffffffffffffffffff1681526020019081526020016000206040518061010001604052908160008201805461018d9061144e565b80601f01602080910402602001604051908101604052809291908181526020018280546101b99061144e565b80156102065780601f106101db57610100808354040283529160200191610206565b820191906000526020600020905b8154815290600101906020018083116101e957829003601f168201915b5050505050815260200160018201805461021f9061144e565b80601f016020809104026020016040519081016040528092919081815260200182805461024b9061144e565b80156102985780601f1061026d57610100808354040283529160200191610298565b820191906000526020600020905b81548152906001019060200180831161027b57829003601f168201915b505050505081526020016002820160009054906101000a900473ffffffffffffffffffffffffffffffffffffffff1673ffffffffffffffffffffffffffffffffffffffff1673ffffffffffffffffffffffffffffffffffffffff1681526020016003820180546103079061144e565b80601f01602080910402602001604051908101604052809291908181526020018280546103339061144e565b80156103805780601f1061035557610100808354040283529160200191610380565b820191906000526020600020905b81548152906001019060200180831161036357829003601f168201915b50505050508152602001600482015481526020016005820180546103a39061144e565b80601f01602080910402602001604051908101604052809291908181526020018280546103cf9061144e565b801561041c5780601f106103f15761010080835404028352916020019161041c565b820191906000526020600020905b8154815290600101906020018083116103ff57829003601f168201915b50505050508152602001600682015481526020016007820154815250509050919050565b60006020528060005260406000206000915090508060000180546104639061144e565b80601f016020809104026020016040519081016040528092919081815260200182805461048f9061144e565b80156104dc5780601f106104b1576101008083540402835291602001916104dc565b820191906000526020600020905b8154815290600101906020018083116104bf57829003601f168201915b5050505050908060010180546104f19061144e565b80601f016020809104026020016040519081016040528092919081815260200182805461051d9061144e565b801561056a5780601f1061053f5761010080835404028352916020019161056a565b820191906000526020600020905b81548152906001019060200180831161054d57829003601f168201915b5050505050908060020160009054906101000a900473ffffffffffffffffffffffffffffffffffffffff16908060030180546105a59061144e565b80601f01602080910402602001604051908101604052809291908181526020018280546105d19061144e565b801561061e5780601f106105f35761010080835404028352916020019161061e565b820191906000526020600020905b81548152906001019060200180831161060157829003601f168201915b5050505050908060040154908060050180546106399061144e565b80601f01602080910402602001604051908101604052809291908181526020018280546106659061144e565b80156106b25780601f10610687576101008083540402835291602001916106b2565b820191906000526020600020905b81548152906001019060200180831161069557829003601f168201915b5050505050908060060154908060070154905088565b813373ffffffffffffffffffffffffffffffffffffffff166000808373ffffffffffffffffffffffffffffffffffffffff1673ffffffffffffffffffffffffffffffffffffffff16815260200190815260200160002060020160009054906101000a900473ffffffffffffffffffffffffffffffffffffffff1673ffffffffffffffffffffffffffffffffffffffff1614610798576040517f08c379a000000000000000000000000000000000000000000000000000000000815260040161078f906114cb565b60405180910390fd5b816000808573ffffffffffffffffffffffffffffffffffffffff1673ffffffffffffffffffffffffffffffffffffffff16815260200190815260200160002060008201518160000190816107ec9190611697565b5060208201518160010190816108029190611697565b5060408201518160020160006101000a81548173ffffffffffffffffffffffffffffffffffffffff021916908373ffffffffffffffffffffffffffffffffffffffff160217905550606082015181600301908161085f9190611697565b506080820151816004015560a082015181600501908161087f9190611697565b5060c0820151816006015560e08201518160070155905050816040015173ffffffffffffffffffffffffffffffffffffffff168373ffffffffffffffffffffffffffffffffffffffff167f153e99ad5c580588fe62ca3b669ea99927366ca464e3539424368081b6d73fe860405160405180910390a3505050565b600080826000015183602001518460400151856060015186608001518760a001518860c001518960e0015160405161093190610d10565b610942989796959493929190611020565b604051809103906000f08015801561095e573d6000803e3d6000fd5b509050826000808373ffffffffffffffffffffffffffffffffffffffff1673ffffffffffffffffffffffffffffffffffffffff16815260200190815260200160002060008201518160000190816109b59190611697565b5060208201518160010190816109cb9190611697565b5060408201518160020160006101000a81548173ffffffffffffffffffffffffffffffffffffffff021916908373ffffffffffffffffffffffffffffffffffffffff1602179055506060820151816003019081610a289190611697565b506080820151816004015560a0820151816005019081610a489190611697565b5060c0820151816006015560e08201518160070155905050826040015173ffffffffffffffffffffffffffffffffffffffff168173ffffffffffffffffffffffffffffffffffffffff167fdf7a97365d5e21c300abdf1d2dab641b7f436b8e57b73821ef74994a0218582d60405160405180910390a380915050919050565b803373ffffffffffffffffffffffffffffffffffffffff166000808373ffffffffffffffffffffffffffffffffffffffff1673ffffffffffffffffffffffffffffffffffffffff16815260200190815260200160002060020160009054906101000a900473ffffffffffffffffffffffffffffffffffffffff1673ffffffffffffffffffffffffffffffffffffffff1614610b97576040517f08c379a0000000000000000000000000000000000000000000000000000000008152600401610b8e906114cb565b60405180910390fd5b6000808373ffffffffffffffffffffffffffffffffffffffff1673ffffffffffffffffffffffffffffffffffffffff16815260200190815260200160002060008082016000610be69190610d1d565b600182016000610bf69190610d1d565b6002820160006101000a81549073ffffffffffffffffffffffffffffffffffffffff0219169055600382016000610c2d9190610d1d565b6004820160009055600582016000610c459190610d1d565b6006820160009055600782016000905550503373ffffffffffffffffffffffffffffffffffffffff168273ffffffffffffffffffffffffffffffffffffffff167f919f0b7ff4470ac0ee260337f208411ab95203c9d3502950ac2c5be8aa36d26760405160405180910390a35050565b6040518061010001604052806060815260200160608152602001600073ffffffffffffffffffffffffffffffffffffffff16815260200160608152602001600081526020016060815260200160008152602001600081525090565b61320a8061176a83390190565b508054610d299061144e565b6000825580601f10610d3b5750610d5a565b601f016020900490600052602060002090810190610d599190610d5d565b5b50565b5b80821115610d76576000816000905550600101610d5e565b5090565b6000604051905090565b600080fd5b600080fd5b600073ffffffffffffffffffffffffffffffffffffffff82169050919050565b6000610db982610d8e565b9050919050565b610dc981610dae565b8114610dd457600080fd5b50565b600081359050610de681610dc0565b92915050565b600060208284031215610e0257610e01610d84565b5b6000610e1084828501610dd7565b91505092915050565b600081519050919050565b600082825260208201905092915050565b60005b83811015610e53578082015181840152602081019050610e38565b60008484015250505050565b6000601f19601f8301169050919050565b6000610e7b82610e19565b610e858185610e24565b9350610e95818560208601610e35565b610e9e81610e5f565b840191505092915050565b610eb281610dae565b82525050565b6000819050919050565b610ecb81610eb8565b82525050565b6000610100830160008301518482036000860152610eef8282610e70565b91505060208301518482036020860152610f098282610e70565b9150506040830151610f1e6040860182610ea9565b5060608301518482036060860152610f368282610e70565b9150506080830151610f4b6080860182610ec2565b5060a083015184820360a0860152610f638282610e70565b91505060c0830151610f7860c0860182610ec2565b5060e0830151610f8b60e0860182610ec2565b508091505092915050565b60006020820190508181036000830152610fb08184610ed1565b905092915050565b600082825260208201905092915050565b6000610fd482610e19565b610fde8185610fb8565b9350610fee818560208601610e35565b610ff781610e5f565b840191505092915050565b61100b81610dae565b82525050565b61101a81610eb8565b82525050565b600061010082019050818103600083015261103b818b610fc9565b9050818103602083015261104f818a610fc9565b905061105e6040830189611002565b81810360608301526110708188610fc9565b905061107f6080830187611011565b81810360a08301526110918186610fc9565b90506110a060c0830185611011565b6110ad60e0830184611011565b9998505050505050505050565b600080fd5b7f4e487b7100000000000000000000000000000000000000000000000000000000600052604160045260246000fd5b6110f782610e5f565b810181811067ffffffffffffffff82111715611116576111156110bf565b5b80604052505050565b6000611129610d7a565b905061113582826110ee565b919050565b600080fd5b600080fd5b600080fd5b600067ffffffffffffffff821115611164576111636110bf565b5b61116d82610e5f565b9050602081019050919050565b82818337600083830152505050565b600061119c61119784611149565b61111f565b9050828152602081018484840111156111b8576111b7611144565b5b6111c384828561117a565b509392505050565b600082601f8301126111e0576111df61113f565b5b81356111f0848260208601611189565b91505092915050565b61120281610eb8565b811461120d57600080fd5b50565b60008135905061121f816111f9565b92915050565b6000610100828403121561123c5761123b6110ba565b5b61124761010061111f565b9050600082013567ffffffffffffffff8111156112675761126661113a565b5b611273848285016111cb565b600083015250602082013567ffffffffffffffff8111156112975761129661113a565b5b6112a3848285016111cb565b60208301525060406112b784828501610dd7565b604083015250606082013567ffffffffffffffff8111156112db576112da61113a565b5b6112e7848285016111cb565b60608301525060806112fb84828501611210565b60808301525060a082013567ffffffffffffffff81111561131f5761131e61113a565b5b61132b848285016111cb565b60a08301525060c061133f84828501611210565b60c08301525060e061135384828501611210565b60e08301525092915050565b6000806040838503121561137657611375610d84565b5b600061138485828601610dd7565b925050602083013567ffffffffffffffff8111156113a5576113a4610d89565b5b6113b185828601611225565b9150509250929050565b6000602082840312156113d1576113d0610d84565b5b600082013567ffffffffffffffff8111156113ef576113ee610d89565b5b6113fb84828501611225565b91505092915050565b60006020820190506114196000830184611002565b92915050565b7f4e487b7100000000000000000000000000000000000000000000000000000000600052602260045260246000fd5b6000600282049050600182168061146657607f821691505b6020821081036114795761147861141f565b5b50919050565b7f4e6f74207468652063726561746f720000000000000000000000000000000000600082015250565b60006114b5600f83610fb8565b91506114c08261147f565b602082019050919050565b600060208201905081810360008301526114e4816114a8565b9050919050565b60008190508160005260206000209050919050565b60006020601f8301049050919050565b600082821b905092915050565b60006008830261154d7fffffffffffffffffffffffffffffffffffffffffffffffffffffffffffffffff82611510565b6115578683611510565b95508019841693508086168417925050509392505050565b6000819050919050565b600061159461158f61158a84610eb8565b61156f565b610eb8565b9050919050565b6000819050919050565b6115ae83611579565b6115c26115ba8261159b565b84845461151d565b825550505050565b600090565b6115d76115ca565b6115e28184846115a5565b505050565b5b81811015611606576115fb6000826115cf565b6001810190506115e8565b5050565b601f82111561164b5761161c816114eb565b61162584611500565b81016020851015611634578190505b61164861164085611500565b8301826115e7565b50505b505050565b600082821c905092915050565b600061166e60001984600802611650565b1980831691505092915050565b6000611687838361165d565b9150826002028217905092915050565b6116a082610e19565b67ffffffffffffffff8111156116b9576116b86110bf565b5b6116c3825461144e565b6116ce82828561160a565b600060209050601f83116001811461170157600084156116ef578287015190505b6116f9858261167b565b865550611761565b601f19841661170f866114eb565b60005b8281101561173757848901518255600182019150602085019450602081019050611712565b868310156117545784890151611750601f89168261165d565b8355505b6001600288020188555050505b50505050505056fe608060405234801561001057600080fd5b5060405161320a38038061320a833981810160405281019061003291906104bd565b8787816000908161004391906107fa565b50806001908161005391906107fa565b5050506100867fd661fb81a3e5704a0e72dae0cbb997863f76215e3777c176ae3a83fb62ab7def8761014360201b60201c565b506100b77fd661fb81a3e5704a0e72dae0cbb997863f76215e3777c176ae3a83fb62ab7def3061014360201b60201c565b50600160078190555085600860006101000a81548173ffffffffffffffffffffffffffffffffffffffff021916908373ffffffffffffffffffffffffffffffffffffffff160217905550846009908161011091906107fa565b5083600a8190555082600b908161012791906107fa565b5081600c8190555080600d8190555050505050505050506108cc565b6000610155838361024160201b60201c565b6102365760016006600085815260200190815260200160002060000160008473ffffffffffffffffffffffffffffffffffffffff1673ffffffffffffffffffffffffffffffffffffffff16815260200190815260200160002060006101000a81548160ff0219169083151502179055506101d36102ac60201b60201c565b73ffffffffffffffffffffffffffffffffffffffff168273ffffffffffffffffffffffffffffffffffffffff16847f2f8788117e7eff1d82e926ec794901d17c78024a50270940304540a733656f0d60405160405180910390a46001905061023b565b600090505b92915050565b60006006600084815260200190815260200160002060000160008373ffffffffffffffffffffffffffffffffffffffff1673ffffffffffffffffffffffffffffffffffffffff16815260200190815260200160002060009054906101000a900460ff16905092915050565b600033905090565b6000604051905090565b600080fd5b600080fd5b600080fd5b600080fd5b6000601f19601f8301169050919050565b7f4e487b7100000000000000000000000000000000000000000000000000000000600052604160045260246000fd5b61031b826102d2565b810181811067ffffffffffffffff8211171561033a576103396102e3565b5b80604052505050565b600061034d6102b4565b90506103598282610312565b919050565b600067ffffffffffffffff821115610379576103786102e3565b5b610382826102d2565b9050602081019050919050565b60005b838110156103ad578082015181840152602081019050610392565b60008484015250505050565b60006103cc6103c78461035e565b610343565b9050828152602081018484840111156103e8576103e76102cd565b5b6103f384828561038f565b509392505050565b600082601f8301126104105761040f6102c8565b5b81516104208482602086016103b9565b91505092915050565b600073ffffffffffffffffffffffffffffffffffffffff82169050919050565b600061045482610429565b9050919050565b61046481610449565b811461046f57600080fd5b50565b6000815190506104818161045b565b92915050565b6000819050919050565b61049a81610487565b81146104a557600080fd5b50565b6000815190506104b781610491565b92915050565b600080600080600080600080610100898b0312156104de576104dd6102be565b5b600089015167ffffffffffffffff8111156104fc576104fb6102c3565b5b6105088b828c016103fb565b985050602089015167ffffffffffffffff811115610529576105286102c3565b5b6105358b828c016103fb565b97505060406105468b828c01610472565b965050606089015167ffffffffffffffff811115610567576105666102c3565b5b6105738b828c016103fb565b95505060806105848b828c016104a8565b94505060a089015167ffffffffffffffff8111156105a5576105a46102c3565b5b6105b18b828c016103fb565b93505060c06105c28b828c016104a8565b92505060e06105d38b828c016104a8565b9150509295985092959890939650565b600081519050919050565b7f4e487b7100000000000000000000000000000000000000000000000000000000600052602260045260246000fd5b6000600282049050600182168061063557607f821691505b602082108103610648576106476105ee565b5b50919050565b60008190508160005260206000209050919050565b60006020601f8301049050919050565b600082821b905092915050565b6000600883026106b07fffffffffffffffffffffffffffffffffffffffffffffffffffffffffffffffff82610673565b6106ba8683610673565b95508019841693508086168417925050509392505050565b6000819050919050565b60006106f76106f26106ed84610487565b6106d2565b610487565b9050919050565b6000819050919050565b610711836106dc565b61072561071d826106fe565b848454610680565b825550505050565b600090565b61073a61072d565b610745818484610708565b505050565b5b818110156107695761075e600082610732565b60018101905061074b565b5050565b601f8211156107ae5761077f8161064e565b61078884610663565b81016020851015610797578190505b6107ab6107a385610663565b83018261074a565b50505b505050565b600082821c905092915050565b60006107d1600019846008026107b3565b1980831691505092915050565b60006107ea83836107c0565b9150826002028217905092915050565b610803826105e3565b67ffffffffffffffff81111561081c5761081b6102e3565b5b610826825461061d565b61083182828561076d565b600060209050601f8311600181146108645760008415610852578287015190505b61085c85826107de565b8655506108c4565b601f1984166108728661064e565b60005b8281101561089a57848901518255600182019150602085019450602081019050610875565b868310156108b757848901516108b3601f8916826107c0565b8355505b6001600288020188555050505b505050505050565b61292f806108db6000396000f3fe608060405234801561001057600080fd5b50600436106101e55760003560e01c806370a082311161010f578063a22cb465116100a2578063c87b56dd11610071578063c87b56dd1461055c578063d547741f1461058c578063e68bf9c3146105a8578063e985e9c5146105d8576101e5565b8063a22cb465146104e8578063af88faf014610504578063b88d4fde14610522578063ba930d041461053e576101e5565b806391d14854116100de57806391d148541461045e57806395d89b411461048e578063a035b1fe146104ac578063a217fddf146104ca576101e5565b806370a08231146103d45780637284e4161461040457806373d1f68d1461042257806375794a3c14610440576101e5565b80632f2ff15d11610187578063616463611161015657806361646361146103605780636352211e1461036a5780636a6278421461039a5780636eaaa76f146103b6576101e5565b80632f2ff15d146102ee57806336568abe1461030a57806342842e0e1461032657806352188fdc14610342576101e5565b8063081812fc116101c3578063081812fc14610256578063095ea7b31461028657806323b872dd146102a2578063248a9ca3146102be576101e5565b806301ffc9a7146101ea57806302d05d3f1461021a57806306fdde0314610238575b600080fd5b61020460048036038101906101ff9190611f8e565b610608565b6040516102119190611fd6565b60405180910390f35b61022261061a565b60405161022f9190612032565b60405180910390f35b610240610640565b60405161024d91906120dd565b60405180910390f35b610270600480360381019061026b9190612135565b6106d2565b60405161027d9190612032565b60405180910390f35b6102a0600480360381019061029b919061218e565b6106ee565b005b6102bc60048036038101906102b791906121ce565b610704565b005b6102d860048036038101906102d39190612257565b610806565b6040516102e59190612293565b60405180910390f35b610308600480360381019061030391906122ae565b610826565b005b610324600480360381019061031f91906122ae565b610848565b005b610340600480360381019061033b91906121ce565b6108c3565b005b61034a6108e3565b60405161035791906122fd565b60405180910390f35b6103686108e9565b005b610384600480360381019061037f9190612135565b6108eb565b6040516103919190612032565b60405180910390f35b6103b460048036038101906103af9190612318565b6108fd565b005b6103be610951565b6040516103cb91906120dd565b60405180910390f35b6103ee60048036038101906103e99190612318565b6109df565b6040516103fb91906122fd565b60405180910390f35b61040c610a99565b60405161041991906120dd565b60405180910390f35b61042a610b27565b6040516104379190612293565b60405180910390f35b610448610b4b565b60405161045591906122fd565b60405180910390f35b610478600480360381019061047391906122ae565b610b51565b6040516104859190611fd6565b60405180910390f35b610496610bbc565b6040516104a391906120dd565b60405180910390f35b6104b4610c4e565b6040516104c191906122fd565b60405180910390f35b6104d2610c54565b6040516104df9190612293565b60405180910390f35b61050260048036038101906104fd9190612371565b610c5b565b005b61050c610c71565b60405161051991906122fd565b60405180910390f35b61053c600480360381019061053791906124e6565b610c77565b005b610546610c9c565b6040516105539190612293565b60405180910390f35b61057660048036038101906105719190612135565b610cc0565b60405161058391906120dd565b60405180910390f35b6105a660048036038101906105a191906122ae565b610d29565b005b6105c260048036038101906105bd9190612318565b610d4b565b6040516105cf91906125e0565b60405180910390f35b6105f260048036038101906105ed91906125fb565b610d6b565b6040516105ff9190611fd6565b60405180910390f35b600061061382610dff565b9050919050565b600860009054906101000a900473ffffffffffffffffffffffffffffffffffffffff1681565b60606000805461064f9061266a565b80601f016020809104026020016040519081016040528092919081815260200182805461067b9061266a565b80156106c85780601f1061069d576101008083540402835291602001916106c8565b820191906000526020600020905b8154815290600101906020018083116106ab57829003601f168201915b5050505050905090565b60006106dd82610e79565b506106e782610f01565b9050919050565b61070082826106fb610f3e565b610f46565b5050565b600073ffffffffffffffffffffffffffffffffffffffff168273ffffffffffffffffffffffffffffffffffffffff16036107765760006040517f64a0ae9200000000000000000000000000000000000000000000000000000000815260040161076d9190612032565b60405180910390fd5b600061078a8383610785610f3e565b610f58565b90508373ffffffffffffffffffffffffffffffffffffffff168173ffffffffffffffffffffffffffffffffffffffff1614610800578382826040517f64283d7b0000000000000000000000000000000000000000000000000000000081526004016107f79392919061269b565b60405180910390fd5b50505050565b600060066000838152602001908152602001600020600101549050919050565b61082f82610806565b61083881611172565b6108428383611186565b50505050565b610850610f3e565b73ffffffffffffffffffffffffffffffffffffffff168173ffffffffffffffffffffffffffffffffffffffff16146108b4576040517f6697b23200000000000000000000000000000000000000000000000000000000815260040160405180910390fd5b6108be8282611278565b505050565b6108de83838360405180602001604052806000815250610c77565b505050565b600d5481565b565b60006108f682610e79565b9050919050565b7fd661fb81a3e5704a0e72dae0cbb997863f76215e3777c176ae3a83fb62ab7def61092781611172565b6109338260075461136b565b6001600760008282546109469190612701565b925050819055505050565b600b805461095e9061266a565b80601f016020809104026020016040519081016040528092919081815260200182805461098a9061266a565b80156109d75780601f106109ac576101008083540402835291602001916109d7565b820191906000526020600020905b8154815290600101906020018083116109ba57829003601f168201915b505050505081565b60008073ffffffffffffffffffffffffffffffffffffffff168273ffffffffffffffffffffffffffffffffffffffff1603610a525760006040517f89c62b64000000000000000000000000000000000000000000000000000000008152600401610a499190612032565b60405180910390fd5b600360008373ffffffffffffffffffffffffffffffffffffffff1673ffffffffffffffffffffffffffffffffffffffff168152602001908152602001600020549050919050565b60098054610aa69061266a565b80601f0160208091040260200160405190810160405280929190818152602001828054610ad29061266a565b8015610b1f5780601f10610af457610100808354040283529160200191610b1f565b820191906000526020600020905b815481529060010190602001808311610b0257829003601f168201915b505050505081565b7fd661fb81a3e5704a0e72dae0cbb997863f76215e3777c176ae3a83fb62ab7def81565b60075481565b60006006600084815260200190815260200160002060000160008373ffffffffffffffffffffffffffffffffffffffff1673ffffffffffffffffffffffffffffffffffffffff16815260200190815260200160002060009054906101000a900460ff16905092915050565b606060018054610bcb9061266a565b80601f0160208091040260200160405190810160405280929190818152602001828054610bf79061266a565b8015610c445780601f10610c1957610100808354040283529160200191610c44565b820191906000526020600020905b815481529060010190602001808311610c2757829003601f168201915b5050505050905090565b600a5481565b6000801b81565b610c6d610c66610f3e565b8383611389565b5050565b600c5481565b610c82848484610704565b610c96610c8d610f3e565b858585856114f8565b50505050565b7fd661fb81a3e5704a0e72dae0cbb997863f76215e3777c176ae3a83fb62ab7def81565b6060610ccb82610e79565b506000610cd66116a9565b90506000815111610cf65760405180602001604052806000815250610d21565b80610d00846116c0565b604051602001610d11929190612771565b6040516020818303038152906040525b915050919050565b610d3282610806565b610d3b81611172565b610d458383611278565b50505050565b600e6020528060005260406000206000915054906101000a900460ff1681565b6000600560008473ffffffffffffffffffffffffffffffffffffffff1673ffffffffffffffffffffffffffffffffffffffff16815260200190815260200160002060008373ffffffffffffffffffffffffffffffffffffffff1673ffffffffffffffffffffffffffffffffffffffff16815260200190815260200160002060009054906101000a900460ff16905092915050565b60007f7965db0b000000000000000000000000000000000000000000000000000000007bffffffffffffffffffffffffffffffffffffffffffffffffffffffff1916827bffffffffffffffffffffffffffffffffffffffffffffffffffffffff19161480610e725750610e718261178e565b5b9050919050565b600080610e8583611870565b9050600073ffffffffffffffffffffffffffffffffffffffff168173ffffffffffffffffffffffffffffffffffffffff1603610ef857826040517f7e273289000000000000000000000000000000000000000000000000000000008152600401610eef91906122fd565b60405180910390fd5b80915050919050565b60006004600083815260200190815260200160002060009054906101000a900473ffffffffffffffffffffffffffffffffffffffff169050919050565b600033905090565b610f5383838360016118ad565b505050565b600080610f6484611870565b9050600073ffffffffffffffffffffffffffffffffffffffff168373ffffffffffffffffffffffffffffffffffffffff1614610fa657610fa5818486611a72565b5b600073ffffffffffffffffffffffffffffffffffffffff168173ffffffffffffffffffffffffffffffffffffffff161461103757610fe86000856000806118ad565b6001600360008373ffffffffffffffffffffffffffffffffffffffff1673ffffffffffffffffffffffffffffffffffffffff168152602001908152602001600020600082825403925050819055505b600073ffffffffffffffffffffffffffffffffffffffff168573ffffffffffffffffffffffffffffffffffffffff16146110ba576001600360008773ffffffffffffffffffffffffffffffffffffffff1673ffffffffffffffffffffffffffffffffffffffff168152602001908152602001600020600082825401925050819055505b846002600086815260200190815260200160002060006101000a81548173ffffffffffffffffffffffffffffffffffffffff021916908373ffffffffffffffffffffffffffffffffffffffff160217905550838573ffffffffffffffffffffffffffffffffffffffff168273ffffffffffffffffffffffffffffffffffffffff167fddf252ad1be2c89b69c2b068fc378daa952ba7f163c4a11628f55a4df523b3ef60405160405180910390a4809150509392505050565b6111838161117e610f3e565b611b36565b50565b60006111928383610b51565b61126d5760016006600085815260200190815260200160002060000160008473ffffffffffffffffffffffffffffffffffffffff1673ffffffffffffffffffffffffffffffffffffffff16815260200190815260200160002060006101000a81548160ff02191690831515021790555061120a610f3e565b73ffffffffffffffffffffffffffffffffffffffff168273ffffffffffffffffffffffffffffffffffffffff16847f2f8788117e7eff1d82e926ec794901d17c78024a50270940304540a733656f0d60405160405180910390a460019050611272565b600090505b92915050565b60006112848383610b51565b156113605760006006600085815260200190815260200160002060000160008473ffffffffffffffffffffffffffffffffffffffff1673ffffffffffffffffffffffffffffffffffffffff16815260200190815260200160002060006101000a81548160ff0219169083151502179055506112fd610f3e565b73ffffffffffffffffffffffffffffffffffffffff168273ffffffffffffffffffffffffffffffffffffffff16847ff6391f5c32d9c69d2a47ea670b442974b53935d1edc7fd64eb21e047a839171b60405160405180910390a460019050611365565b600090505b92915050565b611385828260405180602001604052806000815250611b87565b5050565b600073ffffffffffffffffffffffffffffffffffffffff168273ffffffffffffffffffffffffffffffffffffffff16036113fa57816040517f5b08ba180000000000000000000000000000000000000000000000000000000081526004016113f19190612032565b60405180910390fd5b80600560008573ffffffffffffffffffffffffffffffffffffffff1673ffffffffffffffffffffffffffffffffffffffff16815260200190815260200160002060008473ffffffffffffffffffffffffffffffffffffffff1673ffffffffffffffffffffffffffffffffffffffff16815260200190815260200160002060006101000a81548160ff0219169083151502179055508173ffffffffffffffffffffffffffffffffffffffff168373ffffffffffffffffffffffffffffffffffffffff167f17307eab39ab6107e8899845ad3d59bd9653f200f220920489ca2b5937696c31836040516114eb9190611fd6565b60405180910390a3505050565b60008373ffffffffffffffffffffffffffffffffffffffff163b11156116a2578273ffffffffffffffffffffffffffffffffffffffff1663150b7a02868685856040518563ffffffff1660e01b815260040161155794939291906127ea565b6020604051808303816000875af192505050801561159357506040513d601f19601f82011682018060405250810190611590919061284b565b60015b611617573d80600081146115c3576040519150601f19603f3d011682016040523d82523d6000602084013e6115c8565b606091505b50600081510361160f57836040517f64a0ae920000000000000000000000000000000000000000000000000000000081526004016116069190612032565b60405180910390fd5b805181602001fd5b63150b7a0260e01b7bffffffffffffffffffffffffffffffffffffffffffffffffffffffff1916817bffffffffffffffffffffffffffffffffffffffffffffffffffffffff1916146116a057836040517f64a0ae920000000000000000000000000000000000000000000000000000000081526004016116979190612032565b60405180910390fd5b505b5050505050565b606060405180602001604052806000815250905090565b6060600060016116cf84611bab565b01905060008167ffffffffffffffff8111156116ee576116ed6123bb565b5b6040519080825280601f01601f1916602001820160405280156117205781602001600182028036833780820191505090505b509050600082602001820190505b600115611783578080600190039150507f3031323334353637383961626364656600000000000000000000000000000000600a86061a8153600a858161177757611776612878565b5b0494506000850361172e575b819350505050919050565b60007f80ac58cd000000000000000000000000000000000000000000000000000000007bffffffffffffffffffffffffffffffffffffffffffffffffffffffff1916827bffffffffffffffffffffffffffffffffffffffffffffffffffffffff1916148061185957507f5b5e139f000000000000000000000000000000000000000000000000000000007bffffffffffffffffffffffffffffffffffffffffffffffffffffffff1916827bffffffffffffffffffffffffffffffffffffffffffffffffffffffff1916145b80611869575061186882611cfe565b5b9050919050565b60006002600083815260200190815260200160002060009054906101000a900473ffffffffffffffffffffffffffffffffffffffff169050919050565b80806118e65750600073ffffffffffffffffffffffffffffffffffffffff168273ffffffffffffffffffffffffffffffffffffffff1614155b15611a1a5760006118f684610e79565b9050600073ffffffffffffffffffffffffffffffffffffffff168373ffffffffffffffffffffffffffffffffffffffff161415801561196157508273ffffffffffffffffffffffffffffffffffffffff168173ffffffffffffffffffffffffffffffffffffffff1614155b801561197457506119728184610d6b565b155b156119b657826040517fa9fbf51f0000000000000000000000000000000000000000000000000000000081526004016119ad9190612032565b60405180910390fd5b8115611a1857838573ffffffffffffffffffffffffffffffffffffffff168273ffffffffffffffffffffffffffffffffffffffff167f8c5be1e5ebec7d5bd14f71427d1e84f3dd0314c0f7b2291e5b200ac8c7c3b92560405160405180910390a45b505b836004600085815260200190815260200160002060006101000a81548173ffffffffffffffffffffffffffffffffffffffff021916908373ffffffffffffffffffffffffffffffffffffffff16021790555050505050565b611a7d838383611d68565b611b3157600073ffffffffffffffffffffffffffffffffffffffff168373ffffffffffffffffffffffffffffffffffffffff1603611af257806040517f7e273289000000000000000000000000000000000000000000000000000000008152600401611ae991906122fd565b60405180910390fd5b81816040517f177e802f000000000000000000000000000000000000000000000000000000008152600401611b289291906128a7565b60405180910390fd5b505050565b611b408282610b51565b611b835780826040517fe2517d3f000000000000000000000000000000000000000000000000000000008152600401611b7a9291906128d0565b60405180910390fd5b5050565b611b918383611e29565b611ba6611b9c610f3e565b60008585856114f8565b505050565b600080600090507a184f03e93ff9f4daa797ed6e38ed64bf6a1f0100000000000000008310611c09577a184f03e93ff9f4daa797ed6e38ed64bf6a1f0100000000000000008381611bff57611bfe612878565b5b0492506040810190505b6d04ee2d6d415b85acef81000000008310611c46576d04ee2d6d415b85acef81000000008381611c3c57611c3b612878565b5b0492506020810190505b662386f26fc100008310611c7557662386f26fc100008381611c6b57611c6a612878565b5b0492506010810190505b6305f5e1008310611c9e576305f5e1008381611c9457611c93612878565b5b0492506008810190505b6127108310611cc3576127108381611cb957611cb8612878565b5b0492506004810190505b60648310611ce65760648381611cdc57611cdb612878565b5b0492506002810190505b600a8310611cf5576001810190505b80915050919050565b60007f01ffc9a7000000000000000000000000000000000000000000000000000000007bffffffffffffffffffffffffffffffffffffffffffffffffffffffff1916827bffffffffffffffffffffffffffffffffffffffffffffffffffffffff1916149050919050565b60008073ffffffffffffffffffffffffffffffffffffffff168373ffffffffffffffffffffffffffffffffffffffff1614158015611e2057508273ffffffffffffffffffffffffffffffffffffffff168473ffffffffffffffffffffffffffffffffffffffff161480611de15750611de08484610d6b565b5b80611e1f57508273ffffffffffffffffffffffffffffffffffffffff16611e0783610f01565b73ffffffffffffffffffffffffffffffffffffffff16145b5b90509392505050565b600073ffffffffffffffffffffffffffffffffffffffff168273ffffffffffffffffffffffffffffffffffffffff1603611e9b5760006040517f64a0ae92000000000000000000000000000000000000000000000000000000008152600401611e929190612032565b60405180910390fd5b6000611ea983836000610f58565b9050600073ffffffffffffffffffffffffffffffffffffffff168173ffffffffffffffffffffffffffffffffffffffff1614611f1d5760006040517f73c6ac6e000000000000000000000000000000000000000000000000000000008152600401611f149190612032565b60405180910390fd5b505050565b6000604051905090565b600080fd5b600080fd5b60007fffffffff0000000000000000000000000000000000000000000000000000000082169050919050565b611f6b81611f36565b8114611f7657600080fd5b50565b600081359050611f8881611f62565b92915050565b600060208284031215611fa457611fa3611f2c565b5b6000611fb284828501611f79565b91505092915050565b60008115159050919050565b611fd081611fbb565b82525050565b6000602082019050611feb6000830184611fc7565b92915050565b600073ffffffffffffffffffffffffffffffffffffffff82169050919050565b600061201c82611ff1565b9050919050565b61202c81612011565b82525050565b60006020820190506120476000830184612023565b92915050565b600081519050919050565b600082825260208201905092915050565b60005b8381101561208757808201518184015260208101905061206c565b60008484015250505050565b6000601f19601f8301169050919050565b60006120af8261204d565b6120b98185612058565b93506120c9818560208601612069565b6120d281612093565b840191505092915050565b600060208201905081810360008301526120f781846120a4565b905092915050565b6000819050919050565b612112816120ff565b811461211d57600080fd5b50565b60008135905061212f81612109565b92915050565b60006020828403121561214b5761214a611f2c565b5b600061215984828501612120565b91505092915050565b61216b81612011565b811461217657600080fd5b50565b60008135905061218881612162565b92915050565b600080604083850312156121a5576121a4611f2c565b5b60006121b385828601612179565b92505060206121c485828601612120565b9150509250929050565b6000806000606084860312156121e7576121e6611f2c565b5b60006121f586828701612179565b935050602061220686828701612179565b925050604061221786828701612120565b9150509250925092565b6000819050919050565b61223481612221565b811461223f57600080fd5b50565b6000813590506122518161222b565b92915050565b60006020828403121561226d5761226c611f2c565b5b600061227b84828501612242565b91505092915050565b61228d81612221565b82525050565b60006020820190506122a86000830184612284565b92915050565b600080604083850312156122c5576122c4611f2c565b5b60006122d385828601612242565b92505060206122e485828601612179565b9150509250929050565b6122f7816120ff565b82525050565b600060208201905061231260008301846122ee565b92915050565b60006020828403121561232e5761232d611f2c565b5b600061233c84828501612179565b91505092915050565b61234e81611fbb565b811461235957600080fd5b50565b60008135905061236b81612345565b92915050565b6000806040838503121561238857612387611f2c565b5b600061239685828601612179565b92505060206123a78582860161235c565b9150509250929050565b600080fd5b600080fd5b7f4e487b7100000000000000000000000000000000000000000000000000000000600052604160045260246000fd5b6123f382612093565b810181811067ffffffffffffffff82111715612412576124116123bb565b5b80604052505050565b6000612425611f22565b905061243182826123ea565b919050565b600067ffffffffffffffff821115612451576124506123bb565b5b61245a82612093565b9050602081019050919050565b82818337600083830152505050565b600061248961248484612436565b61241b565b9050828152602081018484840111156124a5576124a46123b6565b5b6124b0848285612467565b509392505050565b600082601f8301126124cd576124cc6123b1565b5b81356124dd848260208601612476565b91505092915050565b60008060008060808587031215612500576124ff611f2c565b5b600061250e87828801612179565b945050602061251f87828801612179565b935050604061253087828801612120565b925050606085013567ffffffffffffffff81111561255157612550611f31565b5b61255d878288016124b8565b91505092959194509250565b7f4e487b7100000000000000000000000000000000000000000000000000000000600052602160045260246000fd5b600281106125a9576125a8612569565b5b50565b60008190506125ba82612598565b919050565b60006125ca826125ac565b9050919050565b6125da816125bf565b82525050565b60006020820190506125f560008301846125d1565b92915050565b6000806040838503121561261257612611611f2c565b5b600061262085828601612179565b925050602061263185828601612179565b9150509250929050565b7f4e487b7100000000000000000000000000000000000000000000000000000000600052602260045260246000fd5b6000600282049050600182168061268257607f821691505b6020821081036126955761269461263b565b5b50919050565b60006060820190506126b06000830186612023565b6126bd60208301856122ee565b6126ca6040830184612023565b949350505050565b7f4e487b7100000000000000000000000000000000000000000000000000000000600052601160045260246000fd5b600061270c826120ff565b9150612717836120ff565b925082820190508082111561272f5761272e6126d2565b5b92915050565b600081905092915050565b600061274b8261204d565b6127558185612735565b9350612765818560208601612069565b80840191505092915050565b600061277d8285612740565b91506127898284612740565b91508190509392505050565b600081519050919050565b600082825260208201905092915050565b60006127bc82612795565b6127c681856127a0565b93506127d6818560208601612069565b6127df81612093565b840191505092915050565b60006080820190506127ff6000830187612023565b61280c6020830186612023565b61281960408301856122ee565b818103606083015261282b81846127b1565b905095945050505050565b60008151905061284581611f62565b92915050565b60006020828403121561286157612860611f2c565b5b600061286f84828501612836565b91505092915050565b7f4e487b7100000000000000000000000000000000000000000000000000000000600052601260045260246000fd5b60006040820190506128bc6000830185612023565b6128c960208301846122ee565b9392505050565b60006040820190506128e56000830185612023565b6128f26020830184612284565b939250505056fea2646970667358221220247f23b38d75a3041599f090ed50f57cd92e140af8d3b7b17b6ed3c0f08d5fa364736f6c634300081b0033a26469706673582212201a03ed29100e7b5dfc87dbb41b9401b4eb00fa2a48f609d61e0a783fe8b9c03d64736f6c634300081b0033",
  "linkReferences": {},
  "deployedLinkReferences": {}
}