{
  "_format": "hh-sol-artifact-1",
  "contractName": "LenomyMarketplace",
  "sourceName": "contracts/LenomyMarketplace.sol",
  "abi": [
    {
      "inputs": [],
      "stateMutability": "nonpayable",
      "type": "constructor"
    },
    {
      "inputs": [
        {
          "internalType": "address",
          "name": "nftCourseAddress",
          "type": "address"
        },
        {
          "internalType": "uint256",
          "name": "tokenId",
          "type": "uint256"
        }
      ],
      "name": "AlreadyListed",
      "type": "error"
    },
    {
      "inputs": [],
      "name": "NoProceeds",
      "type": "error"
    },
    {
      "inputs": [],
      "name": "NotApprovedForMarketplace",
      "type": "error"
    },
    {
      "inputs": [
        {
          "internalType": "address",
          "name": "nftCourseAddress",
          "type": "address"
        },
        {
          "internalType": "uint256",
          "name": "tokenId",
          "type": "uint256"
        }
      ],
      "name": "NotListed",
      "type": "error"
    },
    {
      "inputs": [],
      "name": "NotOwner",
      "type": "error"
    },
    {
      "inputs": [],
      "name": "PriceMustBeAboveZero",
      "type": "error"
    },
    {
      "inputs": [
        {
          "internalType": "address",
          "name": "nftCourseAddress",
          "type": "address"
        },
        {
          "internalType": "uint256",
          "name": "tokenId",
          "type": "uint256"
        },
        {
          "internalType": "uint256",
          "name": "price",
          "type": "uint256"
        }
      ],
      "name": "PriceNotMet",
      "type": "error"
    },
    {
      "inputs": [],
      "name": "ReentrancyGuardReentrantCall",
      "type": "error"
    },
    {
      "anonymous": false,
      "inputs": [
        {
          "indexed": true,
          "internalType": "address",
          "name": "buyer",
          "type": "address"
        },
        {
          "indexed": true,
          "internalType": "address",
          "name": "nftCourseAddress",
          "type": "address"
        },
        {
          "indexed": false,
          "internalType": "uint256",
          "name": "tokenId",
          "type": "uint256"
        },
        {
          "indexed": false,
          "internalType": "uint256",
          "name": "price",
          "type": "uint256"
        }
      ],
      "name": "ItemBought",
      "type": "event"
    },
    {
      "anonymous": false,
      "inputs": [
        {
          "indexed": true,
          "internalType": "address",
          "name": "seller",
          "type": "address"
        },
        {
          "indexed": true,
          "internalType": "address",
          "name": "nftCourseAddress",
          "type": "address"
        },
        {
          "indexed": false,
          "internalType": "uint256",
          "name": "tokenId",
          "type": "uint256"
        }
      ],
      "name": "ItemCancelled",
      "type": "event"
    },
    {
      "anonymous": false,
      "inputs": [
        {
          "indexed": true,
          "internalType": "address",
          "name": "seller",
          "type": "address"
        },
        {
          "indexed": true,
          "internalType": "address",
          "name": "nftCourseAddress",
          "type": "address"
        },
        {
          "indexed": false,
          "internalType": "uint256",
          "name": "tokenId",
          "type": "uint256"
        },
        {
          "indexed": false,
          "internalType": "uint256",
          "name": "price",
          "type": "uint256"
        }
      ],
      "name": "ItemsListed",
      "type": "event"
    },
    {
      "inputs": [
        {
          "internalType": "address",
          "name": "_nftCourseAddress",
          "type": "address"
        },
        {
          "internalType": "uint256",
          "name": "_tokenId",
          "type": "uint256"
        }
      ],
      "name": "buyItem",
      "outputs": [],
      "stateMutability": "payable",
      "type": "function"
    },
    {
      "inputs": [
        {
          "internalType": "address",
          "name": "_nftCourseAddress",
          "type": "address"
        },
        {
          "internalType": "uint256",
          "name": "_tokenId",
          "type": "uint256"
        }
      ],
      "name": "cancelListing",
      "outputs": [],
      "stateMutability": "nonpayable",
      "type": "function"
    },
    {
      "inputs": [
        {
          "internalType": "address",
          "name": "_nftCourseAddress",
          "type": "address"
        }
      ],
      "name": "getListingPrice",
      "outputs": [
        {
          "internalType": "uint256",
          "name": "",
          "type": "uint256"
        }
      ],
      "stateMutability": "view",
      "type": "function"
    },
    {
      "inputs": [
        {
          "internalType": "address",
          "name": "_nftCourseAddress",
          "type": "address"
        },
        {
          "internalType": "uint256",
          "name": "_tokenId",
          "type": "uint256"
        },
        {
          "internalType": "uint256",
          "name": "_price",
          "type": "uint256"
        }
      ],
      "name": "listItem",
      "outputs": [],
      "stateMutability": "nonpayable",
      "type": "function"
    },
    {
      "inputs": [
        {
          "internalType": "address",
          "name": "",
          "type": "address"
        },
        {
          "internalType": "uint256",
          "name": "",
          "type": "uint256"
        }
      ],
      "name": "listings",
      "outputs": [
        {
          "internalType": "uint256",
          "name": "price",
          "type": "uint256"
        },
        {
          "internalType": "address",
          "name": "seller",
          "type": "address"
        }
      ],
      "stateMutability": "view",
      "type": "function"
    },
    {
      "inputs": [
        {
          "internalType": "address",
          "name": "",
          "type": "address"
        }
      ],
      "name": "proceeds",
      "outputs": [
        {
          "internalType": "uint256",
          "name": "",
          "type": "uint256"
        }
      ],
      "stateMutability": "view",
      "type": "function"
    },
    {
      "inputs": [
        {
          "internalType": "address",
          "name": "_nftCourseAddress",
          "type": "address"
        },
        {
          "internalType": "uint256",
          "name": "_tokenId",
          "type": "uint256"
        }
      ],
      "name": "rentItem",
      "outputs": [],
      "stateMutability": "nonpayable",
      "type": "function"
    },
    {
      "inputs": [
        {
          "internalType": "address",
          "name": "_nftCourseAddress",
          "type": "address"
        },
        {
          "internalType": "uint256",
          "name": "_tokenId",
          "type": "uint256"
        }
      ],
      "name": "returnItem",
      "outputs": [],
      "stateMutability": "nonpayable",
      "type": "function"
    },
    {
      "inputs": [
        {
          "internalType": "address",
          "name": "_nftCourseAddress",
          "type": "address"
        },
        {
          "internalType": "uint256",
          "name": "_tokenId",
          "type": "uint256"
        },
        {
          "internalType": "uint256",
          "name": "_price",
          "type": "uint256"
        }
      ],
      "name": "updateListingPrice",
      "outputs": [],
      "stateMutability": "nonpayable",
      "type": "function"
    },
    {
      "inputs": [],
      "name": "withdraw",
      "outputs": [],
      "stateMutability": "nonpayable",
      "type": "function"
    }
  ],
  "bytecode": "0x6080604052348015600f57600080fd5b506001600081905550611af0806100276000396000f3fe6080604052600436106100905760003560e01c80638749e2a0116100595780638749e2a01461018d57806389bfd38f146101b65780639f37092a146101df578063b2ddee06146101fb578063f7232f671461022457610090565b806207df301461009557806335adde54146100d35780633ccfd60b1461011057806345585686146101275780634c9cc09714610164575b600080fd5b3480156100a157600080fd5b506100bc60048036038101906100b791906116b8565b61024d565b6040516100ca929190611716565b60405180910390f35b3480156100df57600080fd5b506100fa60048036038101906100f5919061173f565b61029e565b604051610107919061176c565b60405180910390f35b34801561011c57600080fd5b506101256102b6565b005b34801561013357600080fd5b5061014e6004803603810190610149919061173f565b6103c3565b60405161015b919061176c565b60405180910390f35b34801561017057600080fd5b5061018b600480360381019061018691906116b8565b6103ca565b005b34801561019957600080fd5b506101b460048036038101906101af91906116b8565b6103ce565b005b3480156101c257600080fd5b506101dd60048036038101906101d89190611787565b6103d2565b005b6101f960048036038101906101f491906116b8565b610aa7565b005b34801561020757600080fd5b50610222600480360381019061021d91906116b8565b610ecd565b005b34801561023057600080fd5b5061024b60048036038101906102469190611787565b61130a565b005b6001602052816000526040600020602052806000526040600020600091509150508060000154908060010160009054906101000a900473ffffffffffffffffffffffffffffffffffffffff16905082565b60026020528060005260406000206000915090505481565b6000600260003373ffffffffffffffffffffffffffffffffffffffff1673ffffffffffffffffffffffffffffffffffffffff16815260200190815260200160002054905060008103610334576040517fc4d8fa8700000000000000000000000000000000000000000000000000000000815260040160405180910390fd5b3373ffffffffffffffffffffffffffffffffffffffff166108fc829081150290604051600060405180830381858888f1935050505015801561037a573d6000803e3d6000fd5b506000600260003373ffffffffffffffffffffffffffffffffffffffff1673ffffffffffffffffffffffffffffffffffffffff1681526020019081526020016000208190555050565b6000919050565b5050565b5050565b82826000600160008473ffffffffffffffffffffffffffffffffffffffff1673ffffffffffffffffffffffffffffffffffffffff1681526020019081526020016000206000838152602001908152602001600020604051806040016040529081600082015481526020016001820160009054906101000a900473ffffffffffffffffffffffffffffffffffffffff1673ffffffffffffffffffffffffffffffffffffffff1673ffffffffffffffffffffffffffffffffffffffff16815250509050600073ffffffffffffffffffffffffffffffffffffffff16816020015173ffffffffffffffffffffffffffffffffffffffff1614610506576040517f08c379a00000000000000000000000000000000000000000000000000000000081526004016104fd9061185d565b60405180910390fd5b6000816000015111156105525782826040517f4a5568d500000000000000000000000000000000000000000000000000000000815260040161054992919061187d565b60405180910390fd5b8585600073ffffffffffffffffffffffffffffffffffffffff168273ffffffffffffffffffffffffffffffffffffffff16036105c3576040517f08c379a00000000000000000000000000000000000000000000000000000000081526004016105ba906118f2565b60405180910390fd5b60008103610606576040517f08c379a00000000000000000000000000000000000000000000000000000000081526004016105fd9061195e565b60405180910390fd5b60008290508073ffffffffffffffffffffffffffffffffffffffff16636352211e836040518263ffffffff1660e01b8152600401610644919061176c565b602060405180830381865afa158015610661573d6000803e3d6000fd5b505050506040513d601f19601f820116820180604052508101906106859190611993565b5060008173ffffffffffffffffffffffffffffffffffffffff16636352211e846040518263ffffffff1660e01b81526004016106c1919061176c565b602060405180830381865afa1580156106de573d6000803e3d6000fd5b505050506040513d601f19601f820116820180604052508101906107029190611993565b90503373ffffffffffffffffffffffffffffffffffffffff168173ffffffffffffffffffffffffffffffffffffffff1614610769576040517f30cd747100000000000000000000000000000000000000000000000000000000815260040160405180910390fd5b600088036107a3576040517fe1abbfc500000000000000000000000000000000000000000000000000000000815260040160405180910390fd5b60008a90503073ffffffffffffffffffffffffffffffffffffffff168173ffffffffffffffffffffffffffffffffffffffff1663081812fc8c6040518263ffffffff1660e01b81526004016107f8919061176c565b602060405180830381865afa158015610815573d6000803e3d6000fd5b505050506040513d601f19601f820116820180604052508101906108399190611993565b73ffffffffffffffffffffffffffffffffffffffff1614610886576040517f4be3a2c500000000000000000000000000000000000000000000000000000000815260040160405180910390fd5b60405180604001604052808a81526020013373ffffffffffffffffffffffffffffffffffffffff16815250600160008d73ffffffffffffffffffffffffffffffffffffffff1673ffffffffffffffffffffffffffffffffffffffff16815260200190815260200160002060008c81526020019081526020016000206000820151816000015560208201518160010160006101000a81548173ffffffffffffffffffffffffffffffffffffffff021916908373ffffffffffffffffffffffffffffffffffffffff1602179055509050503073ffffffffffffffffffffffffffffffffffffffff168173ffffffffffffffffffffffffffffffffffffffff1663081812fc8c6040518263ffffffff1660e01b81526004016109a5919061176c565b602060405180830381865afa1580156109c2573d6000803e3d6000fd5b505050506040513d601f19601f820116820180604052508101906109e69190611993565b73ffffffffffffffffffffffffffffffffffffffff1614610a33576040517f4be3a2c500000000000000000000000000000000000000000000000000000000815260040160405180910390fd5b8a73ffffffffffffffffffffffffffffffffffffffff163373ffffffffffffffffffffffffffffffffffffffff167fd939823c8366bcff090c53b3fd33aae36ec4eb7374e122bb6f704b152a5214c78c8c604051610a929291906119c0565b60405180910390a35050505050505050505050565b6000600160008473ffffffffffffffffffffffffffffffffffffffff1673ffffffffffffffffffffffffffffffffffffffff1681526020019081526020016000206000838152602001908152602001600020604051806040016040529081600082015481526020016001820160009054906101000a900473ffffffffffffffffffffffffffffffffffffffff1673ffffffffffffffffffffffffffffffffffffffff1673ffffffffffffffffffffffffffffffffffffffff1681525050905060008390503073ffffffffffffffffffffffffffffffffffffffff168173ffffffffffffffffffffffffffffffffffffffff1663081812fc856040518263ffffffff1660e01b8152600401610bbb919061176c565b602060405180830381865afa158015610bd8573d6000803e3d6000fd5b505050506040513d601f19601f82011682018060405250810190610bfc9190611993565b73ffffffffffffffffffffffffffffffffffffffff1614610c49576040517f4be3a2c500000000000000000000000000000000000000000000000000000000815260040160405180910390fd5b600073ffffffffffffffffffffffffffffffffffffffff16826020015173ffffffffffffffffffffffffffffffffffffffff1603610cc05783836040517f6831488c000000000000000000000000000000000000000000000000000000008152600401610cb792919061187d565b60405180910390fd5b8160000151341015610d1157838383600001516040517f7c934565000000000000000000000000000000000000000000000000000000008152600401610d08939291906119e9565b60405180910390fd5b8073ffffffffffffffffffffffffffffffffffffffff166342842e0e836020015133866040518463ffffffff1660e01b8152600401610d5293929190611a20565b600060405180830381600087803b158015610d6c57600080fd5b505af1158015610d80573d6000803e3d6000fd5b505050503460026000846020015173ffffffffffffffffffffffffffffffffffffffff1673ffffffffffffffffffffffffffffffffffffffff1681526020019081526020016000206000828254610dd79190611a86565b92505081905550600160008573ffffffffffffffffffffffffffffffffffffffff1673ffffffffffffffffffffffffffffffffffffffff16815260200190815260200160002060008481526020019081526020016000206000808201600090556001820160006101000a81549073ffffffffffffffffffffffffffffffffffffffff021916905550508373ffffffffffffffffffffffffffffffffffffffff163373ffffffffffffffffffffffffffffffffffffffff167f263223b1dd81e51054a4e6f791d45a4a1ddb4aadcd93a2dfd892615c3fdac1878534604051610ebf9291906119c0565b60405180910390a350505050565b8181600073ffffffffffffffffffffffffffffffffffffffff168273ffffffffffffffffffffffffffffffffffffffff1603610f3e576040517f08c379a0000000000000000000000000000000000000000000000000000000008152600401610f35906118f2565b60405180910390fd5b60008103610f81576040517f08c379a0000000000000000000000000000000000000000000000000000000008152600401610f789061195e565b60405180910390fd5b60008290508073ffffffffffffffffffffffffffffffffffffffff16636352211e836040518263ffffffff1660e01b8152600401610fbf919061176c565b602060405180830381865afa158015610fdc573d6000803e3d6000fd5b505050506040513d601f19601f820116820180604052508101906110009190611993565b5060008173ffffffffffffffffffffffffffffffffffffffff16636352211e846040518263ffffffff1660e01b815260040161103c919061176c565b602060405180830381865afa158015611059573d6000803e3d6000fd5b505050506040513d601f19601f8201168201806040525081019061107d9190611993565b90503373ffffffffffffffffffffffffffffffffffffffff168173ffffffffffffffffffffffffffffffffffffffff16146110e4576040517f30cd747100000000000000000000000000000000000000000000000000000000815260040160405180910390fd5b6000600160008873ffffffffffffffffffffffffffffffffffffffff1673ffffffffffffffffffffffffffffffffffffffff1681526020019081526020016000206000878152602001908152602001600020604051806040016040529081600082015481526020016001820160009054906101000a900473ffffffffffffffffffffffffffffffffffffffff1673ffffffffffffffffffffffffffffffffffffffff1673ffffffffffffffffffffffffffffffffffffffff16815250509050600073ffffffffffffffffffffffffffffffffffffffff16816020015173ffffffffffffffffffffffffffffffffffffffff160361121a5786866040517f6831488c00000000000000000000000000000000000000000000000000000000815260040161121192919061187d565b60405180910390fd5b600160008873ffffffffffffffffffffffffffffffffffffffff1673ffffffffffffffffffffffffffffffffffffffff16815260200190815260200160002060008781526020019081526020016000206000808201600090556001820160006101000a81549073ffffffffffffffffffffffffffffffffffffffff021916905550508673ffffffffffffffffffffffffffffffffffffffff163373ffffffffffffffffffffffffffffffffffffffff167f6e08c1d889d309942730e4afa7963d0c5294a34a479f2c8cf39a953f287dcdee886040516112f9919061176c565b60405180910390a350505050505050565b8282600073ffffffffffffffffffffffffffffffffffffffff168273ffffffffffffffffffffffffffffffffffffffff160361137b576040517f08c379a0000000000000000000000000000000000000000000000000000000008152600401611372906118f2565b60405180910390fd5b600081036113be576040517f08c379a00000000000000000000000000000000000000000000000000000000081526004016113b59061195e565b60405180910390fd5b60008290508073ffffffffffffffffffffffffffffffffffffffff16636352211e836040518263ffffffff1660e01b81526004016113fc919061176c565b602060405180830381865afa158015611419573d6000803e3d6000fd5b505050506040513d601f19601f8201168201806040525081019061143d9190611993565b5060008173ffffffffffffffffffffffffffffffffffffffff16636352211e846040518263ffffffff1660e01b8152600401611479919061176c565b602060405180830381865afa158015611496573d6000803e3d6000fd5b505050506040513d601f19601f820116820180604052508101906114ba9190611993565b90503373ffffffffffffffffffffffffffffffffffffffff168173ffffffffffffffffffffffffffffffffffffffff1614611521576040517f30cd747100000000000000000000000000000000000000000000000000000000815260040160405180910390fd5b6000600160008973ffffffffffffffffffffffffffffffffffffffff1673ffffffffffffffffffffffffffffffffffffffff16815260200190815260200160002060008881526020019081526020016000209050600073ffffffffffffffffffffffffffffffffffffffff168160010160009054906101000a900473ffffffffffffffffffffffffffffffffffffffff1673ffffffffffffffffffffffffffffffffffffffff160361160c5787876040517f6831488c00000000000000000000000000000000000000000000000000000000815260040161160392919061187d565b60405180910390fd5b8581600001819055505050505050505050565b600080fd5b600073ffffffffffffffffffffffffffffffffffffffff82169050919050565b600061164f82611624565b9050919050565b61165f81611644565b811461166a57600080fd5b50565b60008135905061167c81611656565b92915050565b6000819050919050565b61169581611682565b81146116a057600080fd5b50565b6000813590506116b28161168c565b92915050565b600080604083850312156116cf576116ce61161f565b5b60006116dd8582860161166d565b92505060206116ee858286016116a3565b9150509250929050565b61170181611682565b82525050565b61171081611644565b82525050565b600060408201905061172b60008301856116f8565b6117386020830184611707565b9392505050565b6000602082840312156117555761175461161f565b5b60006117638482850161166d565b91505092915050565b600060208201905061178160008301846116f8565b92915050565b6000806000606084860312156117a05761179f61161f565b5b60006117ae8682870161166d565b93505060206117bf868287016116a3565b92505060406117d0868287016116a3565b9150509250925092565b600082825260208201905092915050565b7f4c656e6f6d794d61726b6574706c6163653a206974656d20697320616c72656160008201527f6479206c69737465640000000000000000000000000000000000000000000000602082015250565b60006118476029836117da565b9150611852826117eb565b604082019050919050565b600060208201905081810360008301526118768161183a565b9050919050565b60006040820190506118926000830185611707565b61189f60208301846116f8565b9392505050565b7f496e76616c6964204e465420636f6e7472616374206164647265737300000000600082015250565b60006118dc601c836117da565b91506118e7826118a6565b602082019050919050565b6000602082019050818103600083015261190b816118cf565b9050919050565b7f496e76616c696420746f6b656e20494400000000000000000000000000000000600082015250565b60006119486010836117da565b915061195382611912565b602082019050919050565b600060208201905081810360008301526119778161193b565b9050919050565b60008151905061198d81611656565b92915050565b6000602082840312156119a9576119a861161f565b5b60006119b78482850161197e565b91505092915050565b60006040820190506119d560008301856116f8565b6119e260208301846116f8565b9392505050565b60006060820190506119fe6000830186611707565b611a0b60208301856116f8565b611a1860408301846116f8565b949350505050565b6000606082019050611a356000830186611707565b611a426020830185611707565b611a4f60408301846116f8565b949350505050565b7f4e487b7100000000000000000000000000000000000000000000000000000000600052601160045260246000fd5b6000611a9182611682565b9150611a9c83611682565b9250828201905080821115611ab457611ab3611a57565b5b9291505056fea2646970667358221220ae03338b32984c5f4ec53b546b181e0e139823bfa6a0f83649f969bd8e57a97064736f6c634300081b0033",
  "linkReferences": {},
  "deployedLinkReferences": {}
}