{
  "_format": "hh-sol-artifact-1",
  "contractName": "StreamingPaymentFactory",
  "sourceName": "contracts/StreamingPaymentFactory.sol",
  "abi": [
    {
      "inputs": [],
      "name": "AmountMustBeGreaterThanZero",
      "type": "error"
    },
    {
      "anonymous": false,
      "inputs": [
        {
          "indexed": true,
          "internalType": "address",
          "name": "_streamingPaymentAddress",
          "type": "address"
        },
        {
          "components": [
            {
              "internalType": "address",
              "name": "depositor",
              "type": "address"
            },
            {
              "internalType": "address",
              "name": "recipient",
              "type": "address"
            },
            {
              "internalType": "uint256",
              "name": "flowRate",
              "type": "uint256"
            },
            {
              "internalType": "uint256",
              "name": "startTime",
              "type": "uint256"
            },
            {
              "internalType": "uint256",
              "name": "balance",
              "type": "uint256"
            },
            {
              "internalType": "bool",
              "name": "isActive",
              "type": "bool"
            }
          ],
          "indexed": false,
          "internalType": "struct StreamingPayment.StreamPaymentData",
          "name": "_streamPaymentData",
          "type": "tuple"
        }
      ],
      "name": "StreamingPaymentCreated",
      "type": "event"
    },
    {
      "stateMutability": "payable",
      "type": "fallback"
    },
    {
      "inputs": [
        {
          "internalType": "address",
          "name": "_depositor",
          "type": "address"
        },
        {
          "internalType": "address",
          "name": "_recipient",
          "type": "address"
        },
        {
          "internalType": "uint256",
          "name": "_flowRate",
          "type": "uint256"
        }
      ],
      "name": "createStreamingPayment",
      "outputs": [
        {
          "internalType": "address",
          "name": "",
          "type": "address"
        }
      ],
      "stateMutability": "payable",
      "type": "function"
    },
    {
      "inputs": [
        {
          "internalType": "address",
          "name": "_streamingPaymentAddress",
          "type": "address"
        }
      ],
      "name": "getStreamingPayment",
      "outputs": [
        {
          "components": [
            {
              "internalType": "address",
              "name": "depositor",
              "type": "address"
            },
            {
              "internalType": "address",
              "name": "recipient",
              "type": "address"
            },
            {
              "internalType": "uint256",
              "name": "flowRate",
              "type": "uint256"
            },
            {
              "internalType": "uint256",
              "name": "startTime",
              "type": "uint256"
            },
            {
              "internalType": "uint256",
              "name": "balance",
              "type": "uint256"
            },
            {
              "internalType": "bool",
              "name": "isActive",
              "type": "bool"
            }
          ],
          "internalType": "struct StreamingPayment.StreamPaymentData",
          "name": "",
          "type": "tuple"
        }
      ],
      "stateMutability": "view",
      "type": "function"
    },
    {
      "inputs": [],
      "name": "process",
      "outputs": [],
      "stateMutability": "nonpayable",
      "type": "function"
    },
    {
      "inputs": [
        {
          "internalType": "uint256",
          "name": "",
          "type": "uint256"
        }
      ],
      "name": "streamingPaymentAddresses",
      "outputs": [
        {
          "internalType": "address",
          "name": "",
          "type": "address"
        }
      ],
      "stateMutability": "view",
      "type": "function"
    },
    {
      "inputs": [
        {
          "internalType": "address",
          "name": "",
          "type": "address"
        }
      ],
      "name": "streamingPayments",
      "outputs": [
        {
          "internalType": "address",
          "name": "depositor",
          "type": "address"
        },
        {
          "internalType": "address",
          "name": "recipient",
          "type": "address"
        },
        {
          "internalType": "uint256",
          "name": "flowRate",
          "type": "uint256"
        },
        {
          "internalType": "uint256",
          "name": "startTime",
          "type": "uint256"
        },
        {
          "internalType": "uint256",
          "name": "balance",
          "type": "uint256"
        },
        {
          "internalType": "bool",
          "name": "isActive",
          "type": "bool"
        }
      ],
      "stateMutability": "view",
      "type": "function"
    },
    {
      "stateMutability": "payable",
      "type": "receive"
    }
  ],
  "bytecode": "0x6080604052348015600f57600080fd5b506123358061001f6000396000f3fe60806040526004361061004d5760003560e01c8062bcf7fd146100505780630bad49091461009257806338cacfd9146100c25780633aca0420146100ff578063c33fb8771461013c5761004e565b5b005b34801561005c57600080fd5b506100776004803603810190610072919061085a565b610153565b604051610089969594939291906108ca565b60405180910390f35b6100ac60048036038101906100a79190610957565b6101dc565b6040516100b991906109aa565b60405180910390f35b3480156100ce57600080fd5b506100e960048036038101906100e491906109c5565b6104e2565b6040516100f691906109aa565b60405180910390f35b34801561010b57600080fd5b506101266004803603810190610121919061085a565b610521565b6040516101339190610a9a565b60405180910390f35b34801561014857600080fd5b5061015161065e565b005b60006020528060005260406000206000915090508060000160009054906101000a900473ffffffffffffffffffffffffffffffffffffffff16908060010160009054906101000a900473ffffffffffffffffffffffffffffffffffffffff16908060020154908060030154908060040154908060050160009054906101000a900460ff16905086565b6000803411610217576040517f5e85ae7300000000000000000000000000000000000000000000000000000000815260040160405180910390fd5b60006040518060c001604052808673ffffffffffffffffffffffffffffffffffffffff1681526020018573ffffffffffffffffffffffffffffffffffffffff1681526020018481526020014281526020013481526020016001151581525090506000348686308760405161028a90610786565b6102979493929190610ab5565b6040518091039082f09050801580156102b4573d6000803e3d6000fd5b5090508073ffffffffffffffffffffffffffffffffffffffff1663be9a65556040518163ffffffff1660e01b8152600401600060405180830381600087803b1580156102ff57600080fd5b505af1158015610313573d6000803e3d6000fd5b50505050816000808373ffffffffffffffffffffffffffffffffffffffff1673ffffffffffffffffffffffffffffffffffffffff16815260200190815260200160002060008201518160000160006101000a81548173ffffffffffffffffffffffffffffffffffffffff021916908373ffffffffffffffffffffffffffffffffffffffff16021790555060208201518160010160006101000a81548173ffffffffffffffffffffffffffffffffffffffff021916908373ffffffffffffffffffffffffffffffffffffffff16021790555060408201518160020155606082015181600301556080820151816004015560a08201518160050160006101000a81548160ff0219169083151502179055509050506001819080600181540180825580915050600190039060005260206000200160009091909190916101000a81548173ffffffffffffffffffffffffffffffffffffffff021916908373ffffffffffffffffffffffffffffffffffffffff1602179055508073ffffffffffffffffffffffffffffffffffffffff167f04622c95f974d59fe8d0a5af7d04e4da6b63f3a0c6a4ea26c3e27b21e1c0f0d7836040516104ce9190610a9a565b60405180910390a280925050509392505050565b600181815481106104f257600080fd5b906000526020600020016000915054906101000a900473ffffffffffffffffffffffffffffffffffffffff1681565b610529610793565b6000808373ffffffffffffffffffffffffffffffffffffffff1673ffffffffffffffffffffffffffffffffffffffff1681526020019081526020016000206040518060c00160405290816000820160009054906101000a900473ffffffffffffffffffffffffffffffffffffffff1673ffffffffffffffffffffffffffffffffffffffff1673ffffffffffffffffffffffffffffffffffffffff1681526020016001820160009054906101000a900473ffffffffffffffffffffffffffffffffffffffff1673ffffffffffffffffffffffffffffffffffffffff1673ffffffffffffffffffffffffffffffffffffffff1681526020016002820154815260200160038201548152602001600482015481526020016005820160009054906101000a900460ff1615151515815250509050919050565b600060018054806020026020016040519081016040528092919081815260200182805480156106e257602002820191906000526020600020905b8160009054906101000a900473ffffffffffffffffffffffffffffffffffffffff1673ffffffffffffffffffffffffffffffffffffffff1681526020019060010190808311610698575b5050505050905060005b815181101561078257600082828151811061070a57610709610afa565b5b602002602001015190508073ffffffffffffffffffffffffffffffffffffffff16631b9265b86040518163ffffffff1660e01b8152600401600060405180830381600087803b15801561075c57600080fd5b505af1158015610770573d6000803e3d6000fd5b505050505080806001019150506106ec565b5050565b6117d680610b2a83390190565b6040518060c00160405280600073ffffffffffffffffffffffffffffffffffffffff168152602001600073ffffffffffffffffffffffffffffffffffffffff1681526020016000815260200160008152602001600081526020016000151581525090565b600080fd5b600073ffffffffffffffffffffffffffffffffffffffff82169050919050565b6000610827826107fc565b9050919050565b6108378161081c565b811461084257600080fd5b50565b6000813590506108548161082e565b92915050565b6000602082840312156108705761086f6107f7565b5b600061087e84828501610845565b91505092915050565b6108908161081c565b82525050565b6000819050919050565b6108a981610896565b82525050565b60008115159050919050565b6108c4816108af565b82525050565b600060c0820190506108df6000830189610887565b6108ec6020830188610887565b6108f960408301876108a0565b61090660608301866108a0565b61091360808301856108a0565b61092060a08301846108bb565b979650505050505050565b61093481610896565b811461093f57600080fd5b50565b6000813590506109518161092b565b92915050565b6000806000606084860312156109705761096f6107f7565b5b600061097e86828701610845565b935050602061098f86828701610845565b92505060406109a086828701610942565b9150509250925092565b60006020820190506109bf6000830184610887565b92915050565b6000602082840312156109db576109da6107f7565b5b60006109e984828501610942565b91505092915050565b6109fb8161081c565b82525050565b610a0a81610896565b82525050565b610a19816108af565b82525050565b60c082016000820151610a3560008501826109f2565b506020820151610a4860208501826109f2565b506040820151610a5b6040850182610a01565b506060820151610a6e6060850182610a01565b506080820151610a816080850182610a01565b5060a0820151610a9460a0850182610a10565b50505050565b600060c082019050610aaf6000830184610a1f565b92915050565b6000608082019050610aca6000830187610887565b610ad76020830186610887565b610ae46040830185610887565b610af160608301846108a0565b95945050505050565b7f4e487b7100000000000000000000000000000000000000000000000000000000600052603260045260246000fdfe60806040526040516117d63803806117d68339818101604052810190610025919061049a565b600073ffffffffffffffffffffffffffffffffffffffff168273ffffffffffffffffffffffffffffffffffffffff16148061008c5750600073ffffffffffffffffffffffffffffffffffffffff168473ffffffffffffffffffffffffffffffffffffffff16145b806100c35750600073ffffffffffffffffffffffffffffffffffffffff168373ffffffffffffffffffffffffffffffffffffffff16145b156100fa576040517fe6c4247b00000000000000000000000000000000000000000000000000000000815260040160405180910390fd5b60008111610134576040517f5e85ae7300000000000000000000000000000000000000000000000000000000815260040160405180910390fd5b6000340361016e576040517f5e85ae7300000000000000000000000000000000000000000000000000000000815260040160405180910390fd5b61019e7f2fdac322ee704ce09f0773f7f3f92eb98d5e7c836ee9c056cccd5f61041e5e3f3361029260201b60201c565b506101cf7f8f4f2da22e8ac8f11e15f9fc141cddbb5deea8800186560abb6e68c5496619a98561029260201b60201c565b5083600160006101000a81548173ffffffffffffffffffffffffffffffffffffffff021916908373ffffffffffffffffffffffffffffffffffffffff16021790555082600260006101000a81548173ffffffffffffffffffffffffffffffffffffffff021916908373ffffffffffffffffffffffffffffffffffffffff16021790555080600381905550426004819055506001600860006101000a81548160ff021916908315150217905550346006819055504260078190555050505050610501565b60006102a4838361038f60201b60201c565b61038457600160008085815260200190815260200160002060000160008473ffffffffffffffffffffffffffffffffffffffff1673ffffffffffffffffffffffffffffffffffffffff16815260200190815260200160002060006101000a81548160ff0219169083151502179055506103216103f960201b60201c565b73ffffffffffffffffffffffffffffffffffffffff168273ffffffffffffffffffffffffffffffffffffffff16847f2f8788117e7eff1d82e926ec794901d17c78024a50270940304540a733656f0d60405160405180910390a460019050610389565b600090505b92915050565b600080600084815260200190815260200160002060000160008373ffffffffffffffffffffffffffffffffffffffff1673ffffffffffffffffffffffffffffffffffffffff16815260200190815260200160002060009054906101000a900460ff16905092915050565b600033905090565b600080fd5b600073ffffffffffffffffffffffffffffffffffffffff82169050919050565b600061043182610406565b9050919050565b61044181610426565b811461044c57600080fd5b50565b60008151905061045e81610438565b92915050565b6000819050919050565b61047781610464565b811461048257600080fd5b50565b6000815190506104948161046e565b92915050565b600080600080608085870312156104b4576104b3610401565b5b60006104c28782880161044f565b94505060206104d38782880161044f565b93505060406104e48782880161044f565b92505060606104f587828801610485565b91505092959194509250565b6112c6806105106000396000f3fe60806040526004361061014f5760003560e01c806378e97925116100b6578063be9a65551161006f578063be9a655514610442578063c4b8db4614610459578063c7c4ff4614610484578063ca13bf65146104af578063d547741f146104da578063e2fdcc17146105035761016e565b806378e97925146103425780638456cb591461036d57806391d1485414610384578063a217fddf146103c1578063a3b0b5a3146103ec578063b69ef8a8146104175761016e565b806336568abe1161010857806336568abe146102775780633ccfd60b146102a05780633f4ba83a146102aa5780634d44d7ab146102c157806366d003ac146102ec5780636ce76f30146103175761016e565b806301ffc9a71461018857806307da68f5146101c55780631b9265b8146101dc57806322f3e2d4146101e6578063248a9ca3146102115780632f2ff15d1461024e5761016e565b3661016e5734600660008282546101669190610f1e565b925050819055005b34600660008282546101809190610f1e565b925050819055005b34801561019457600080fd5b506101af60048036038101906101aa9190610faf565b61052e565b6040516101bc9190610ff7565b60405180910390f35b3480156101d157600080fd5b506101da6105a8565b005b6101e4610636565b005b3480156101f257600080fd5b506101fb6107a0565b6040516102089190610ff7565b60405180910390f35b34801561021d57600080fd5b5061023860048036038101906102339190611048565b6107b3565b6040516102459190611084565b60405180910390f35b34801561025a57600080fd5b50610275600480360381019061027091906110fd565b6107d2565b005b34801561028357600080fd5b5061029e600480360381019061029991906110fd565b6107f4565b005b6102a861086f565b005b3480156102b657600080fd5b506102bf610955565b005b3480156102cd57600080fd5b506102d66109e4565b6040516102e3919061114c565b60405180910390f35b3480156102f857600080fd5b506103016109e9565b60405161030e9190611176565b60405180910390f35b34801561032357600080fd5b5061032c610a0f565b6040516103399190611084565b60405180910390f35b34801561034e57600080fd5b50610357610a33565b604051610364919061114c565b60405180910390f35b34801561037957600080fd5b50610382610a39565b005b34801561039057600080fd5b506103ab60048036038101906103a691906110fd565b610ac7565b6040516103b89190610ff7565b60405180910390f35b3480156103cd57600080fd5b506103d6610b31565b6040516103e39190611084565b60405180910390f35b3480156103f857600080fd5b50610401610b38565b60405161040e9190611084565b60405180910390f35b34801561042357600080fd5b5061042c610b5c565b604051610439919061114c565b60405180910390f35b34801561044e57600080fd5b50610457610b62565b005b34801561046557600080fd5b5061046e610bb1565b60405161047b919061114c565b60405180910390f35b34801561049057600080fd5b50610499610bb7565b6040516104a69190611176565b60405180910390f35b3480156104bb57600080fd5b506104c4610bdd565b6040516104d1919061114c565b60405180910390f35b3480156104e657600080fd5b5061050160048036038101906104fc91906110fd565b610be3565b005b34801561050f57600080fd5b50610518610c05565b6040516105259190611176565b60405180910390f35b60007f7965db0b000000000000000000000000000000000000000000000000000000007bffffffffffffffffffffffffffffffffffffffffffffffffffffffff1916827bffffffffffffffffffffffffffffffffffffffffffffffffffffffff191614806105a157506105a082610c2b565b5b9050919050565b7f2fdac322ee704ce09f0773f7f3f92eb98d5e7c836ee9c056cccd5f61041e5e3f6105d281610c95565b600860009054906101000a900460ff16610618576040517f93813ce100000000000000000000000000000000000000000000000000000000815260040160405180910390fd5b6000600860006101000a81548160ff02191690831515021790555050565b7f2fdac322ee704ce09f0773f7f3f92eb98d5e7c836ee9c056cccd5f61041e5e3f61066081610c95565b600860009054906101000a900460ff166106a6576040517f93813ce100000000000000000000000000000000000000000000000000000000815260040160405180910390fd5b6000600754426106b69190611191565b90506000603c600354836106ca91906111c5565b6106d49190611236565b9050806006541015610712576040517ff70b9da700000000000000000000000000000000000000000000000000000000815260040160405180910390fd5b600260009054906101000a900473ffffffffffffffffffffffffffffffffffffffff1673ffffffffffffffffffffffffffffffffffffffff166108fc829081150290604051600060405180830381858888f1935050505015801561077a573d6000803e3d6000fd5b50806006600082825461078d9190611191565b9250508190555042600781905550505050565b600860009054906101000a900460ff1681565b6000806000838152602001908152602001600020600101549050919050565b6107db826107b3565b6107e481610c95565b6107ee8383610ca9565b50505050565b6107fc610d9a565b73ffffffffffffffffffffffffffffffffffffffff168173ffffffffffffffffffffffffffffffffffffffff1614610860576040517f6697b23200000000000000000000000000000000000000000000000000000000815260040160405180910390fd5b61086a8282610da2565b505050565b7f8f4f2da22e8ac8f11e15f9fc141cddbb5deea8800186560abb6e68c5496619a961089981610c95565b600860009054906101000a900460ff166108df576040517f93813ce100000000000000000000000000000000000000000000000000000000815260040160405180910390fd5b600160009054906101000a900473ffffffffffffffffffffffffffffffffffffffff1673ffffffffffffffffffffffffffffffffffffffff166108fc6006549081150290604051600060405180830381858888f19350505050158015610949573d6000803e3d6000fd5b50600060068190555050565b7f2fdac322ee704ce09f0773f7f3f92eb98d5e7c836ee9c056cccd5f61041e5e3f61097f81610c95565b600860009054906101000a900460ff16156109c6576040517f93813ce100000000000000000000000000000000000000000000000000000000815260040160405180910390fd5b6001600860006101000a81548160ff02191690831515021790555050565b603c81565b600260009054906101000a900473ffffffffffffffffffffffffffffffffffffffff1681565b7f2fdac322ee704ce09f0773f7f3f92eb98d5e7c836ee9c056cccd5f61041e5e3f81565b60045481565b7f2fdac322ee704ce09f0773f7f3f92eb98d5e7c836ee9c056cccd5f61041e5e3f610a6381610c95565b600860009054906101000a900460ff16610aa9576040517f93813ce100000000000000000000000000000000000000000000000000000000815260040160405180910390fd5b6000600860006101000a81548160ff02191690831515021790555050565b600080600084815260200190815260200160002060000160008373ffffffffffffffffffffffffffffffffffffffff1673ffffffffffffffffffffffffffffffffffffffff16815260200190815260200160002060009054906101000a900460ff16905092915050565b6000801b81565b7f8f4f2da22e8ac8f11e15f9fc141cddbb5deea8800186560abb6e68c5496619a981565b60065481565b7f2fdac322ee704ce09f0773f7f3f92eb98d5e7c836ee9c056cccd5f61041e5e3f610b8c81610c95565b426004819055506001600860006101000a81548160ff02191690831515021790555050565b60075481565b600160009054906101000a900473ffffffffffffffffffffffffffffffffffffffff1681565b60035481565b610bec826107b3565b610bf581610c95565b610bff8383610da2565b50505050565b600560009054906101000a900473ffffffffffffffffffffffffffffffffffffffff1681565b60007f01ffc9a7000000000000000000000000000000000000000000000000000000007bffffffffffffffffffffffffffffffffffffffffffffffffffffffff1916827bffffffffffffffffffffffffffffffffffffffffffffffffffffffff1916149050919050565b610ca681610ca1610d9a565b610e94565b50565b6000610cb58383610ac7565b610d8f57600160008085815260200190815260200160002060000160008473ffffffffffffffffffffffffffffffffffffffff1673ffffffffffffffffffffffffffffffffffffffff16815260200190815260200160002060006101000a81548160ff021916908315150217905550610d2c610d9a565b73ffffffffffffffffffffffffffffffffffffffff168273ffffffffffffffffffffffffffffffffffffffff16847f2f8788117e7eff1d82e926ec794901d17c78024a50270940304540a733656f0d60405160405180910390a460019050610d94565b600090505b92915050565b600033905090565b6000610dae8383610ac7565b15610e8957600080600085815260200190815260200160002060000160008473ffffffffffffffffffffffffffffffffffffffff1673ffffffffffffffffffffffffffffffffffffffff16815260200190815260200160002060006101000a81548160ff021916908315150217905550610e26610d9a565b73ffffffffffffffffffffffffffffffffffffffff168273ffffffffffffffffffffffffffffffffffffffff16847ff6391f5c32d9c69d2a47ea670b442974b53935d1edc7fd64eb21e047a839171b60405160405180910390a460019050610e8e565b600090505b92915050565b610e9e8282610ac7565b610ee15780826040517fe2517d3f000000000000000000000000000000000000000000000000000000008152600401610ed8929190611267565b60405180910390fd5b5050565b6000819050919050565b7f4e487b7100000000000000000000000000000000000000000000000000000000600052601160045260246000fd5b6000610f2982610ee5565b9150610f3483610ee5565b9250828201905080821115610f4c57610f4b610eef565b5b92915050565b600080fd5b60007fffffffff0000000000000000000000000000000000000000000000000000000082169050919050565b610f8c81610f57565b8114610f9757600080fd5b50565b600081359050610fa981610f83565b92915050565b600060208284031215610fc557610fc4610f52565b5b6000610fd384828501610f9a565b91505092915050565b60008115159050919050565b610ff181610fdc565b82525050565b600060208201905061100c6000830184610fe8565b92915050565b6000819050919050565b61102581611012565b811461103057600080fd5b50565b6000813590506110428161101c565b92915050565b60006020828403121561105e5761105d610f52565b5b600061106c84828501611033565b91505092915050565b61107e81611012565b82525050565b60006020820190506110996000830184611075565b92915050565b600073ffffffffffffffffffffffffffffffffffffffff82169050919050565b60006110ca8261109f565b9050919050565b6110da816110bf565b81146110e557600080fd5b50565b6000813590506110f7816110d1565b92915050565b6000806040838503121561111457611113610f52565b5b600061112285828601611033565b9250506020611133858286016110e8565b9150509250929050565b61114681610ee5565b82525050565b6000602082019050611161600083018461113d565b92915050565b611170816110bf565b82525050565b600060208201905061118b6000830184611167565b92915050565b600061119c82610ee5565b91506111a783610ee5565b92508282039050818111156111bf576111be610eef565b5b92915050565b60006111d082610ee5565b91506111db83610ee5565b92508282026111e981610ee5565b91508282048414831517611200576111ff610eef565b5b5092915050565b7f4e487b7100000000000000000000000000000000000000000000000000000000600052601260045260246000fd5b600061124182610ee5565b915061124c83610ee5565b92508261125c5761125b611207565b5b828204905092915050565b600060408201905061127c6000830185611167565b6112896020830184611075565b939250505056fea2646970667358221220ab8f2a1e084de722c26b44c9cd5952f1867f6cfa8b7914694bfc915767287efb64736f6c634300081b0033a2646970667358221220a9f6bc25e343237df2c835bbcd9d16b39f2ea5dbdd107392275c635c6d3642dd64736f6c634300081b0033",
  "linkReferences": {},
  "deployedLinkReferences": {}
}